:100000000C9462000C948A000C948A000C948A0070
:100010000C948A000C948A000C948A000C948A0038
:100020000C948A000C948A000C948A000C948A0028
:100030000C948A000C948A000C948A000C948A0018
:100040000C9438050C948A000C9404030C9440031F
:100050000C948A000C948A000C948A000C948A00F8
:100060000C948A000C948A00000000070002010032
:100070000003040600000000000000000102040864
:100080001020408001020408102001020408102002
:10009000040404040404040402020202020203032E
:1000A00003030303000000002300260029000000D2
:1000B0000000250028002B0000000000240027007D
:1000C0002A00FB0311241FBECFEFD8E0DEBFCDBF57
:1000D00011E0A0E0B1E0E0E2FCE002C005900D928A
:1000E000A031B107D9F711E0A0E1B1E001C01D9244
:1000F000A73CB107E1F710E0C4ECD0E004C02297C0
:10010000FE010E940A06C23CD107C9F70E9473048F
:100110000C940E060C94000060E08AE00E946F01CF
:1001200061E08DE00E946F0161E080E00E946F015C
:1001300060E082E00E946F0140E052EC61E070E01C
:1001400087E191E00C947B03CF92DF92EF92FF92D4
:10015000CF9382E00E94DE01019709F082C0809176
:100160001001811185C07DC080911001811170C086
:1001700081C087E191E00E943505613071058105FC
:10018000910511F1623071058105910509F444C0B2
:10019000672B682B692B09F05BC087E191E00E9417
:1001A0003505C62F87E191E00E9435056B017C0182
:1001B00087E191E00E9497020A9709F049C0B601D1
:1001C0008C2F0E94070244C087E191E00E94350510
:1001D000709316016093150187E191E00E94350547
:1001E000709314016093130187E191E00E9435053B
:1001F000709312016093110161E0809115010E94DA
:100200006F0161E0809113010E946F0161E08091B4
:1002100011010E946F0118C087E191E00E9435052D
:10022000809115010E94070287E191E00E94350547
:10023000809113010E94070287E191E00E94350539
:10024000809111010E94070287E191E00E949702CC
:1002500087E191E00E946802181619060CF489CF14
:100260000EC082E00E94DE01892B09F47DCFF0CF21
:1002700061E001C060E080E00E94A701E9CFCF917A
:10028000FF90EF90DF90CF900895833069F028F4CD
:100290008130A1F0823011F514C08630B1F0873082
:1002A000C1F08430D9F404C0809180008F7703C0FE
:1002B000809180008F7D80938000089584B58F7732
:1002C00002C084B58F7D84BD08958091B0008F7782
:1002D00003C08091B0008F7D8093B0000895CF93CC
:1002E000DF9390E0FC01E458FF4F4491FC01E0579C
:1002F000FF4F8491882341F190E0880F991FFC0102
:10030000E854FF4F25913491D90182559F4FFC014C
:1003100085919491C82FD92F9FB7F8948C91611132
:1003200006C0409584238C938881842308C0623062
:1003300041F4242F209582238C938881842B8883F9
:1003400002C0842B8C939FBFDF91CF9108950F93B0
:100350001F93CF93DF931F92CDB7DEB7282F30E0E6
:10036000F901E859FF4F8491F901E458FF4F1491C6
:10037000F901E057FF4F04910023D1F0882321F0C9
:1003800069830E9445016981E02FF0E0EE0FFF1FB5
:10039000E255FF4F85919491DC019FB7F8948C91C1
:1003A000611103C01095812301C0812B8C939FBFE5
:1003B0000F90DF91CF911F910F910895CF93DF930D
:1003C000282F30E0F901E859FF4F8491F901E458F2
:1003D000FF4FD491F901E057FF4FC491CC2389F02E
:1003E00081110E944501EC2FF0E0EE0FFF1FEC554C
:1003F000FF4F85919491DC018C918D2321E030E0B9
:1004000011F420E030E0C901DF91CF9108951F93EE
:10041000CF93DF93182FEB0161E00E946F012097CB
:1004200011F460E004C0CF3FD10539F461E0812FC1
:10043000DF91CF911F910C94A701E12FF0E0E859D3
:10044000FF4FE491E330B9F028F4E13051F0E230AD
:10045000B1F50CC0E63019F1E73049F1E43079F537
:1004600014C084B5806884BDC7BD2EC084B58062C9
:1004700084BDC8BD29C080918000806880938000C1
:10048000D0938900C09388001FC080918000806253
:1004900080938000D0938B00C0938A0015C0809118
:1004A000B00080688093B000C093B3000DC080910D
:1004B000B00080628093B000C093B40005C0C03823
:1004C000D1050CF0B3CFADCFDF91CF911F9108953F
:1004D000FC0184859585FC01E05CFF4F2081318122
:1004E000FC01EE5BFF4F80819181281B390B2F733C
:1004F0003327C9010895FC0184859585FC01E05CE2
:10050000FF4F40815181FC01EE5BFF4F2081318123
:100510004217530741F00190F081E02DE80FF91FD9
:10052000208130E002C02FEF3FEFC9010895FC01A8
:1005300084859585FC01E05CFF4F40815181FC0181
:10054000EE5BFF4F208131814217530781F0A0817C
:10055000B181A80FB91F8C91208131812F5F3F4F4E
:100560002F73332731832083282F30E002C02FEFF1
:100570003FEFC9010895FC0186859785FC01E05C89
:10058000FF4FDC01AE5BBF4F408151812D913C910B
:10059000119742175307C1F70895CF93DF93FC01DA
:1005A00086859785DC01A05CBF4F2D913C9111970A
:1005B0002F5F3F4F2F733327EC01CE5BDF4F488116
:1005C000598124173507D9F30D90BC91A02DA80FA0
:1005D000B91F6C93A685B785A05CBF4F11963C935D
:1005E0002E93A689B7892C9181E090E0058C02C0FA
:1005F000880F991F0A94E2F7282B2C9381E090E052
:10060000DF91CF91089508951F920F920FB60F9228
:1006100011242F933F934F938F939F93EF93FF93C7
:100620004091C6008091BA019091BB0101968F73F1
:1006300099272091BC013091BD018217930759F091
:10064000E091BA01F091BB01E658FE4F40839093D0
:10065000BB018093BA01FF91EF919F918F914F91D0
:100660003F912F910F900FBE0F901F90189587E12B
:1006700091E00E946802892B11F00C940303089505
:100680001F920F920FB60F9211242F933F938F93C7
:100690009F93EF93FF9320917601309177018091A2
:1006A0007801909179012817390731F48091C100C0
:1006B0008F7D8093C10014C0E0917801F0917901A1
:1006C000EA5CFE4F2081809178019091790101963A
:1006D0008F73992790937901809378012093C600B6
:1006E000FF91EF919F918F913F912F910F900FBEAE
:1006F0000F901F901895CF92DF92EF92FF92CF93B9
:10070000DF93EC016A017B01411581EE5807610519
:100710007105F9F0EC89FD8981E090E00E8C02C052
:10072000880F991F0A94E2F7808360E079E08DE3F7
:1007300090E0A70196010E94DA0521503109410994
:1007400051095695479537952795211580E138072A
:1007500098F0EC89FD89108260E874E88EE190E001
:10076000A70196010E94DA0521503109410951097A
:100770005695479537952795E889F9893083EA8911
:10078000FB892083EE89FF89408181E090E09C0114
:100790000A8C02C0220F331F0A94E2F7422B4083D7
:1007A000EE89FF8940819C010B8C02C0220F331F10
:1007B0000A94E2F7422B4083EE89FF8940819C0135
:1007C0000C8C02C0220F331F0A94E2F7422B4083A5
:1007D000EE89FF8920810D8C02C0880F991F0A9431
:1007E000E2F7809582238083DF91CF91FF90EF9095
:1007F000DF90CF90089510921A011092190188EE9F
:1008000093E0A0E0B0E080931B0190931C01A093C3
:100810001D01B0931E0184E091E090931801809334
:1008200017018AE791E0909324018093230186E3E6
:1008300091E0909326018093250185EC90E09093C0
:1008400028018093270184EC90E090932A01809303
:10085000290180EC90E090932C0180932B0181EC96
:1008600090E090932E0180932D0186EC90E0909380
:10087000300180932F0184E08093310183E08093E5
:10088000320187E08093330185E08093340181E079
:10089000809335010895CF92DF92EF92FF920F93EC
:1008A0001F93CF93DF936C01EB017A01E60EF71EE5
:1008B00000E010E00BC06991D601ED91FC91019030
:1008C000F081E02DC6010995080F191FCE15DF052F
:1008D00091F7C801DF91CF911F910F91FF90EF9099
:1008E000DF90CF9008950E9494050E948C00C7E38A
:1008F000D3E00E94A4002097E1F30E943703F9CFD0
:100900000F931F93CF93DF93EC010E9482056887BA
:1009100079878A879B87E881F9810084F185E02DBA
:10092000CE0109959C0197FF15C00E94820508859C
:1009300019852A853B85601B710B820B930B0C81FB
:100940001D812E813F81601771078207930718F37D
:100950002FEF3FEFC901DF91CF911F910F910895C4
:10096000CF93DF93EC01CE010E9480049C0197FDA0
:100970000EC08D32910559F0C0970A9740F0E8817A
:10098000F9810680F781E02DCE010995ECCFC901F0
:10099000DF91CF910895CF92DF92FF920F931F9333
:1009A000CF93DF9300D000D0CDB7DEB76C01062F18
:1009B0000E94B004FC0120E030E0A90197FD47C08F
:1009C000F12C112707FD1095E017F107E9F0ED3242
:1009D000F105C1F0CF01C0970A97B0F4AAE0B0E0EA
:1009E0000E94CF059B01AC01CF01AA2797FDA095DE
:1009F000BA2F280F391F4A1F5B1F205331094109A5
:100A0000510902C0FF24F394D601ED91FC910680B8
:100A1000F781E02DC60129833A834B835C830995D6
:100A2000C6010E948004FC01C09729813A814B8154
:100A30005C810A9748F2E017F10731F2FF2039F0A4
:100A400050954095309521953F4F4F4F5F4FB901DD
:100A5000CA010F900F900F900F90DF91CF911F91CF
:100A60000F91FF90DF90CF90089561E00C94CB043C
:100A70001F920F920FB60F9211242F933F938F93D3
:100A80009F93AF93BF938091BE019091BF01A091BE
:100A9000C001B091C1013091C601232F2D5F2D37C8
:100AA00020F40196A11DB11D05C0232F2A570296DF
:100AB000A11DB11D2093C6018093BE019093BF017B
:100AC000A093C001B093C1018091C2019091C30174
:100AD000A091C401B091C5010196A11DB11D8093E3
:100AE000C2019093C301A093C401B093C501BF910B
:100AF000AF919F918F913F912F910F900FBE0F90CB
:100B00001F9018950F931F938FB7F8940091BE0113
:100B10001091BF012091C0013091C1018FBFB80178
:100B2000C9011F910F910895789484B5826084BDA6
:100B300084B5816084BD85B5826085BD85B58160E1
:100B400085BDEEE6F0E0808181608083E1E8F0E041
:100B50001082808182608083808181608083E0E870
:100B6000F0E0808181608083E1EBF0E0808184604F
:100B70008083E0EBF0E0808181608083EAE7F0E051
:100B800080818460808380818260808380818160B5
:100B900080838081806880831092C10008950E94C4
:100BA000FC05A59F900DB49F900DA49F800D911DF5
:100BB00011240895A1E21A2EAA1BBB1BFD010DC032
:100BC000AA1FBB1FEE1FFF1FA217B307E407F507FD
:100BD00020F0A21BB30BE40BF50B661F771F881FD9
:100BE000991F1A9469F760957095809590959B016F
:100BF000AC01BD01CF010895A29FB001B39FC00118
:100C0000A39F01D0B29F700D811D1124911D0895E5
:100C1000EE0FFF1F0590F491E02D0994F894FFCF9B
:100C200000000000CD024B04680297027B02BB0269
:00000001FF
